{
  "_format": "hh-sol-artifact-1",
  "contractName": "Poll",
  "sourceName": "contracts/Poll.sol",
  "abi": [
    {
      "anonymous": false,
      "inputs": [
        {
          "indexed": false,
          "internalType": "uint256",
          "name": "optionId",
          "type": "uint256"
        }
      ],
      "name": "OptionAdded",
      "type": "event"
    },
    {
      "anonymous": false,
      "inputs": [
        {
          "indexed": true,
          "internalType": "uint256",
          "name": "optionId",
          "type": "uint256"
        }
      ],
      "name": "Vote",
      "type": "event"
    },
    {
      "anonymous": false,
      "inputs": [
        {
          "indexed": false,
          "internalType": "uint256",
          "name": "optionId",
          "type": "uint256"
        }
      ],
      "name": "WinnerDeclared",
      "type": "event"
    },
    {
      "inputs": [
        {
          "internalType": "string",
          "name": "_name",
          "type": "string"
        }
      ],
      "name": "addOption",
      "outputs": [],
      "stateMutability": "nonpayable",
      "type": "function"
    },
    {
      "inputs": [],
      "name": "countVotesAndDeclareWinner",
      "outputs": [],
      "stateMutability": "nonpayable",
      "type": "function"
    },
    {
      "inputs": [],
      "name": "getOptionsLength",
      "outputs": [
        {
          "internalType": "uint256",
          "name": "",
          "type": "uint256"
        }
      ],
      "stateMutability": "view",
      "type": "function"
    },
    {
      "inputs": [
        {
          "internalType": "uint256",
          "name": "",
          "type": "uint256"
        }
      ],
      "name": "options",
      "outputs": [
        {
          "internalType": "uint256",
          "name": "id",
          "type": "uint256"
        },
        {
          "internalType": "string",
          "name": "name",
          "type": "string"
        }
      ],
      "stateMutability": "view",
      "type": "function"
    },
    {
      "inputs": [
        {
          "internalType": "uint256",
          "name": "_optionId",
          "type": "uint256"
        }
      ],
      "name": "vote",
      "outputs": [],
      "stateMutability": "nonpayable",
      "type": "function"
    },
    {
      "inputs": [
        {
          "internalType": "address",
          "name": "",
          "type": "address"
        }
      ],
      "name": "voters",
      "outputs": [
        {
          "internalType": "bool",
          "name": "",
          "type": "bool"
        }
      ],
      "stateMutability": "view",
      "type": "function"
    },
    {
      "inputs": [
        {
          "internalType": "uint256",
          "name": "",
          "type": "uint256"
        }
      ],
      "name": "votes",
      "outputs": [
        {
          "internalType": "uint256",
          "name": "",
          "type": "uint256"
        }
      ],
      "stateMutability": "view",
      "type": "function"
    }
  ],
  "bytecode": "0x608060405234801561001057600080fd5b50610b5c806100206000396000f3fe608060405234801561001057600080fd5b506004361061007d5760003560e01c80635eb57b481161005b5780635eb57b48146100ff578063a3ec138d1461011d578063c61e07ab1461014d578063edc550dc146101575761007d565b80630121b93f14610082578063409e22051461009e5780635df81330146100cf575b600080fd5b61009c600480360381019061009791906106f4565b610173565b005b6100b860048036038101906100b391906106f4565b6102f8565b6040516100c6929190610830565b60405180910390f35b6100e960048036038101906100e491906106f4565b6103b4565b6040516100f69190610815565b60405180910390f35b6101076103cc565b6040516101149190610815565b60405180910390f35b6101376004803603810190610132919061068a565b6103d8565b60405161014491906107ba565b60405180910390f35b6101556103f8565b005b610171600480360381019061016c91906106b3565b61048f565b005b600260003373ffffffffffffffffffffffffffffffffffffffff1673ffffffffffffffffffffffffffffffffffffffff16815260200190815260200160002060009054906101000a900460ff1615610200576040517f08c379a00000000000000000000000000000000000000000000000000000000081526004016101f7906107d5565b60405180910390fd5b6000805490508110610247576040517f08c379a000000000000000000000000000000000000000000000000000000000815260040161023e906107f5565b60405180910390fd5b6001600260003373ffffffffffffffffffffffffffffffffffffffff1673ffffffffffffffffffffffffffffffffffffffff16815260200190815260200160002060006101000a81548160ff0219169083151502179055506001600082815260200190815260200160002060008154809291906102c3906109bf565b9190505550807fdcd6a5cd90707bfd61ed2fddae23e88c584cb5b78a0e9989710a59fd84c0a1f960405160405180910390a250565b6000818154811061030857600080fd5b90600052602060002090600202016000915090508060000154908060010180546103319061095c565b80601f016020809104026020016040519081016040528092919081815260200182805461035d9061095c565b80156103aa5780601f1061037f576101008083540402835291602001916103aa565b820191906000526020600020905b81548152906001019060200180831161038d57829003601f168201915b5050505050905082565b60016020528060005260406000206000915090505481565b60008080549050905090565b60026020528060005260406000206000915054906101000a900460ff1681565b60008060005b60008054905081101561045357816001600083815260200190815260200160002054111561044057600160008281526020019081526020016000205491508092505b808061044b906109bf565b9150506103fe565b507fc3846bd1acff429d0ab7da1331cfef5e9293c246b4ee97dbd7a95a5c1edeffa6826040516104839190610815565b60405180910390a15050565b600080805490509050600060405180604001604052808381526020018481525090806001815401808255809150506001900390600052602060002090600202016000909190919091506000820151816000015560208201518160010190805190602001906104fe929190610555565b505050600060016000838152602001908152602001600020819055507faf98ee484f6ae6c1497bbd5eb7ddff3909aa2ef3f0be39b00b29431871a249dc816040516105499190610815565b60405180910390a15050565b8280546105619061095c565b90600052602060002090601f01602090048101928261058357600085556105ca565b82601f1061059c57805160ff19168380011785556105ca565b828001600101855582156105ca579182015b828111156105c95782518255916020019190600101906105ae565b5b5090506105d791906105db565b5090565b5b808211156105f45760008160009055506001016105dc565b5090565b600061060b61060684610885565b610860565b90508281526020810184848401111561062357600080fd5b61062e84828561091a565b509392505050565b60008135905061064581610af8565b92915050565b600082601f83011261065c57600080fd5b813561066c8482602086016105f8565b91505092915050565b60008135905061068481610b0f565b92915050565b60006020828403121561069c57600080fd5b60006106aa84828501610636565b91505092915050565b6000602082840312156106c557600080fd5b600082013567ffffffffffffffff8111156106df57600080fd5b6106eb8482850161064b565b91505092915050565b60006020828403121561070657600080fd5b600061071484828501610675565b91505092915050565b610726816108e4565b82525050565b6000610737826108b6565b61074181856108c1565b9350610751818560208601610929565b61075a81610a95565b840191505092915050565b6000610772601a836108c1565b915061077d82610aa6565b602082019050919050565b6000610795600f836108c1565b91506107a082610acf565b602082019050919050565b6107b481610910565b82525050565b60006020820190506107cf600083018461071d565b92915050565b600060208201905081810360008301526107ee81610765565b9050919050565b6000602082019050818103600083015261080e81610788565b9050919050565b600060208201905061082a60008301846107ab565b92915050565b600060408201905061084560008301856107ab565b8181036020830152610857818461072c565b90509392505050565b600061086a61087b565b9050610876828261098e565b919050565b6000604051905090565b600067ffffffffffffffff8211156108a05761089f610a66565b5b6108a982610a95565b9050602081019050919050565b600081519050919050565b600082825260208201905092915050565b60006108dd826108f0565b9050919050565b60008115159050919050565b600073ffffffffffffffffffffffffffffffffffffffff82169050919050565b6000819050919050565b82818337600083830152505050565b60005b8381101561094757808201518184015260208101905061092c565b83811115610956576000848401525b50505050565b6000600282049050600182168061097457607f821691505b6020821081141561098857610987610a37565b5b50919050565b61099782610a95565b810181811067ffffffffffffffff821117156109b6576109b5610a66565b5b80604052505050565b60006109ca82610910565b91507fffffffffffffffffffffffffffffffffffffffffffffffffffffffffffffffff8214156109fd576109fc610a08565b5b600182019050919050565b7f4e487b7100000000000000000000000000000000000000000000000000000000600052601160045260246000fd5b7f4e487b7100000000000000000000000000000000000000000000000000000000600052602260045260246000fd5b7f4e487b7100000000000000000000000000000000000000000000000000000000600052604160045260246000fd5b6000601f19601f8301169050919050565b7f416464726573732068617320616c726561647920766f7465642e000000000000600082015250565b7f496e76616c6964206f7074696f6e2e0000000000000000000000000000000000600082015250565b610b01816108d2565b8114610b0c57600080fd5b50565b610b1881610910565b8114610b2357600080fd5b5056fea2646970667358221220472f41a92787d3977c28c323d606f11828d83580e18fa8125eca52c35604cb5c64736f6c63430008020033",
  "linkReferences": {},
  "deployedLinkReferences": {}
}